{"contracts/Blog.sol":{"Blog":{"abi":[{"anonymous":false,"inputs":[{"indexed":false,"internalType":"address","name":"sender","type":"address"},{"indexed":false,"internalType":"uint256","name":"id","type":"uint256"}],"name":"Add","type":"event"},{"anonymous":false,"inputs":[{"indexed":false,"internalType":"address","name":"sender","type":"address"},{"indexed":false,"internalType":"uint256","name":"id","type":"uint256"},{"indexed":false,"internalType":"enum Blog.Status","name":"status","type":"uint8"}],"name":"Del","type":"event"},{"anonymous":false,"inputs":[{"indexed":false,"internalType":"address","name":"sender","type":"address"},{"indexed":false,"internalType":"uint256","name":"id","type":"uint256"}],"name":"Save","type":"event"},{"inputs":[{"internalType":"string","name":"_ipfsHash","type":"string"}],"name":"add","outputs":[],"stateMutability":"nonpayable","type":"function"},{"inputs":[{"internalType":"uint256","name":"_id","type":"uint256"}],"name":"del","outputs":[],"stateMutability":"nonpayable","type":"function"},{"inputs":[{"internalType":"uint256","name":"_id","type":"uint256"}],"name":"get","outputs":[{"internalType":"string","name":"ipfsHash","type":"string"}],"stateMutability":"view","type":"function"},{"inputs":[],"name":"getCount","outputs":[{"internalType":"uint256","name":"","type":"uint256"}],"stateMutability":"view","type":"function"},{"inputs":[{"internalType":"uint256","name":"_page","type":"uint256"},{"internalType":"uint256","name":"_pageSize","type":"uint256"}],"name":"list","outputs":[{"internalType":"uint256[]","name":"ids","type":"uint256[]"},{"internalType":"string[]","name":"ipfsHashs","type":"string[]"},{"internalType":"enum Blog.Status[]","name":"status","type":"uint8[]"}],"stateMutability":"view","type":"function"},{"inputs":[{"internalType":"uint256","name":"_id","type":"uint256"},{"internalType":"string","name":"_ipfsHash","type":"string"}],"name":"save","outputs":[],"stateMutability":"nonpayable","type":"function"}],"evm":{"bytecode":{"linkReferences":{},"object":"60806040526000805534801561001457600080fd5b5061192f806100246000396000f3fe608060405234801561001057600080fd5b50600436106100625760003560e01c806350fd73671461006757806357771a23146100995780639507d39a146100b5578063a87d942c146100e5578063b0c8f9dc14610103578063cbf7446b1461011f575b600080fd5b610081600480360381019061007c9190610d84565b61013b565b604051610090939291906110fa565b60405180910390f35b6100b360048036038101906100ae9190611146565b610619565b005b6100cf60048036038101906100ca9190611146565b6107e6565b6040516100dc91906111bd565b60405180910390f35b6100ed6109bc565b6040516100fa91906111ee565b60405180910390f35b61011d6004803603810190610118919061133e565b610a06565b005b61013960048036038101906101349190611387565b610bab565b005b60608060606000600260003373ffffffffffffffffffffffffffffffffffffffff1673ffffffffffffffffffffffffffffffffffffffff1681526020019081526020016000208054905090508067ffffffffffffffff8111156101a1576101a0611213565b5b6040519080825280602002602001820160405280156101cf5781602001602082028036833780820191505090505b5093508067ffffffffffffffff8111156101ec576101eb611213565b5b60405190808252806020026020018201604052801561021f57816020015b606081526020019060019003908161020a5790505b5092508067ffffffffffffffff81111561023c5761023b611213565b5b60405190808252806020026020018201604052801561026a5781602001602082028036833780820191505090505b50915060008060008760018a6102809190611412565b61028a9190611446565b905060006001898b61029c9190611446565b6102a69190611412565b90506000805b86811015610505576000600260003373ffffffffffffffffffffffffffffffffffffffff1673ffffffffffffffffffffffffffffffffffffffff168152602001908152602001600020828154811061030757610306611488565b5b9060005260206000200154905060018081111561032757610326611000565b5b6001600083815260200190815260200160002060020160009054906101000a900460ff16600181111561035d5761035c611000565b5b0361036857506104f2565b8280610373906114b7565b9350508483108061038357508383115b1561038e57506104f2565b808b87815181106103a2576103a1611488565b5b6020026020010181815250506001600082815260200190815260200160002060010180546103cf9061152e565b80601f01602080910402602001604051908101604052809291908181526020018280546103fb9061152e565b80156104485780601f1061041d57610100808354040283529160200191610448565b820191906000526020600020905b81548152906001019060200180831161042b57829003601f168201915b50505050508a87815181106104605761045f611488565b5b60200260200101819052506001600082815260200190815260200160002060020160009054906101000a900460ff168987815181106104a2576104a1611488565b5b602002602001019060018111156104bc576104bb611000565b5b908160018111156104d0576104cf611000565b5b8152505086806104df906114b7565b97505085806104ed906114b7565b965050505b80806104fd906114b7565b9150506102ac565b506000850361060257600167ffffffffffffffff81111561052957610528611213565b5b6040519080825280602002602001820160405280156105575781602001602082028036833780820191505090505b509850600167ffffffffffffffff81111561057557610574611213565b5b6040519080825280602002602001820160405280156105a857816020015b60608152602001906001900390816105935790505b509750600167ffffffffffffffff8111156105c6576105c5611213565b5b6040519080825280602002602001820160405280156105f45781602001602082028036833780820191505090505b509650505050505050610612565b8489528488528487525050505050505b9250925092565b3373ffffffffffffffffffffffffffffffffffffffff166001600083815260200190815260200160002060000160009054906101000a900473ffffffffffffffffffffffffffffffffffffffff1673ffffffffffffffffffffffffffffffffffffffff16146106bd576040517f08c379a00000000000000000000000000000000000000000000000000000000081526004016106b4906115ab565b60405180910390fd5b600060018111156106d1576106d0611000565b5b6001600083815260200190815260200160002060020160009054906101000a900460ff16600181111561070757610706611000565b5b14610747576040517f08c379a000000000000000000000000000000000000000000000000000000000815260040161073e906115ab565b60405180910390fd5b600180600083815260200190815260200160002060020160006101000a81548160ff021916908360018111156107805761077f611000565b5b02179055507f036d72f167243a95070b9c5500536c59137eae1c6f2bdb3fe53aad6084bfb3c433826001600085815260200190815260200160002060020160009054906101000a900460ff166040516107db9392919061161b565b60405180910390a150565b60603373ffffffffffffffffffffffffffffffffffffffff166001600084815260200190815260200160002060000160009054906101000a900473ffffffffffffffffffffffffffffffffffffffff1673ffffffffffffffffffffffffffffffffffffffff161461088c576040517f08c379a0000000000000000000000000000000000000000000000000000000008152600401610883906115ab565b60405180910390fd5b600060018111156108a05761089f611000565b5b6001600084815260200190815260200160002060020160009054906101000a900460ff1660018111156108d6576108d5611000565b5b14610916576040517f08c379a000000000000000000000000000000000000000000000000000000000815260040161090d906115ab565b60405180910390fd5b6001600083815260200190815260200160002060010180546109379061152e565b80601f01602080910402602001604051908101604052809291908181526020018280546109639061152e565b80156109b05780601f10610985576101008083540402835291602001916109b0565b820191906000526020600020905b81548152906001019060200180831161099357829003601f168201915b50505050509050919050565b6000600260003373ffffffffffffffffffffffffffffffffffffffff1673ffffffffffffffffffffffffffffffffffffffff16815260200190815260200160002080549050905090565b600080815480929190610a18906114b7565b919050555060405180606001604052803373ffffffffffffffffffffffffffffffffffffffff16815260200182815260200160006001811115610a5e57610a5d611000565b5b815250600160008054815260200190815260200160002060008201518160000160006101000a81548173ffffffffffffffffffffffffffffffffffffffff021916908373ffffffffffffffffffffffffffffffffffffffff1602179055506020820151816001019081610ad191906117fe565b5060408201518160020160006101000a81548160ff02191690836001811115610afd57610afc611000565b5b0217905550905050600260003373ffffffffffffffffffffffffffffffffffffffff1673ffffffffffffffffffffffffffffffffffffffff16815260200190815260200160002060005490806001815401808255809150506001900390600052602060002001600090919091909150557f2728c9d3205d667bbc0eefdfeda366261b4d021949630c047f3e5834b30611ab33600054604051610ba09291906118d0565b60405180910390a150565b3373ffffffffffffffffffffffffffffffffffffffff166001600084815260200190815260200160002060000160009054906101000a900473ffffffffffffffffffffffffffffffffffffffff1673ffffffffffffffffffffffffffffffffffffffff1614610c4f576040517f08c379a0000000000000000000000000000000000000000000000000000000008152600401610c46906115ab565b60405180910390fd5b60006001811115610c6357610c62611000565b5b6001600084815260200190815260200160002060020160009054906101000a900460ff166001811115610c9957610c98611000565b5b14610cd9576040517f08c379a0000000000000000000000000000000000000000000000000000000008152600401610cd0906115ab565b60405180910390fd5b80600160008481526020019081526020016000206001019081610cfc91906117fe565b507f5a3e025ad8b0ffc3940134b57218ebd90cfa0ed8a0ec0fdd53be572c480cf2cd3383604051610d2e9291906118d0565b60405180910390a15050565b6000604051905090565b600080fd5b600080fd5b6000819050919050565b610d6181610d4e565b8114610d6c57600080fd5b50565b600081359050610d7e81610d58565b92915050565b60008060408385031215610d9b57610d9a610d44565b5b6000610da985828601610d6f565b9250506020610dba85828601610d6f565b9150509250929050565b600081519050919050565b600082825260208201905092915050565b6000819050602082019050919050565b610df981610d4e565b82525050565b6000610e0b8383610df0565b60208301905092915050565b6000602082019050919050565b6000610e2f82610dc4565b610e398185610dcf565b9350610e4483610de0565b8060005b83811015610e75578151610e5c8882610dff565b9750610e6783610e17565b925050600181019050610e48565b5085935050505092915050565b600081519050919050565b600082825260208201905092915050565b6000819050602082019050919050565b600081519050919050565b600082825260208201905092915050565b60005b83811015610ee8578082015181840152602081019050610ecd565b60008484015250505050565b6000601f19601f8301169050919050565b6000610f1082610eae565b610f1a8185610eb9565b9350610f2a818560208601610eca565b610f3381610ef4565b840191505092915050565b6000610f4a8383610f05565b905092915050565b6000602082019050919050565b6000610f6a82610e82565b610f748185610e8d565b935083602082028501610f8685610e9e565b8060005b85811015610fc25784840389528151610fa38582610f3e565b9450610fae83610f52565b925060208a01995050600181019050610f8a565b50829750879550505050505092915050565b600081519050919050565b600082825260208201905092915050565b6000819050602082019050919050565b7f4e487b7100000000000000000000000000000000000000000000000000000000600052602160045260246000fd5b600281106110405761103f611000565b5b50565b60008190506110518261102f565b919050565b600061106182611043565b9050919050565b61107181611056565b82525050565b60006110838383611068565b60208301905092915050565b6000602082019050919050565b60006110a782610fd4565b6110b18185610fdf565b93506110bc83610ff0565b8060005b838110156110ed5781516110d48882611077565b97506110df8361108f565b9250506001810190506110c0565b5085935050505092915050565b600060608201905081810360008301526111148186610e24565b905081810360208301526111288185610f5f565b9050818103604083015261113c818461109c565b9050949350505050565b60006020828403121561115c5761115b610d44565b5b600061116a84828501610d6f565b91505092915050565b600082825260208201905092915050565b600061118f82610eae565b6111998185611173565b93506111a9818560208601610eca565b6111b281610ef4565b840191505092915050565b600060208201905081810360008301526111d78184611184565b905092915050565b6111e881610d4e565b82525050565b600060208201905061120360008301846111df565b92915050565b600080fd5b600080fd5b7f4e487b7100000000000000000000000000000000000000000000000000000000600052604160045260246000fd5b61124b82610ef4565b810181811067ffffffffffffffff8211171561126a57611269611213565b5b80604052505050565b600061127d610d3a565b90506112898282611242565b919050565b600067ffffffffffffffff8211156112a9576112a8611213565b5b6112b282610ef4565b9050602081019050919050565b82818337600083830152505050565b60006112e16112dc8461128e565b611273565b9050828152602081018484840111156112fd576112fc61120e565b5b6113088482856112bf565b509392505050565b600082601f83011261132557611324611209565b5b81356113358482602086016112ce565b91505092915050565b60006020828403121561135457611353610d44565b5b600082013567ffffffffffffffff81111561137257611371610d49565b5b61137e84828501611310565b91505092915050565b6000806040838503121561139e5761139d610d44565b5b60006113ac85828601610d6f565b925050602083013567ffffffffffffffff8111156113cd576113cc610d49565b5b6113d985828601611310565b9150509250929050565b7f4e487b7100000000000000000000000000000000000000000000000000000000600052601160045260246000fd5b600061141d82610d4e565b915061142883610d4e565b92508282039050818111156114405761143f6113e3565b5b92915050565b600061145182610d4e565b915061145c83610d4e565b925082820261146a81610d4e565b91508282048414831517611481576114806113e3565b5b5092915050565b7f4e487b7100000000000000000000000000000000000000000000000000000000600052603260045260246000fd5b60006114c282610d4e565b91507fffffffffffffffffffffffffffffffffffffffffffffffffffffffffffffffff82036114f4576114f36113e3565b5b600182019050919050565b7f4e487b7100000000000000000000000000000000000000000000000000000000600052602260045260246000fd5b6000600282049050600182168061154657607f821691505b602082108103611559576115586114ff565b5b50919050565b7f4461746120646f6573206e6f7420657869737400000000000000000000000000600082015250565b6000611595601383611173565b91506115a08261155f565b602082019050919050565b600060208201905081810360008301526115c481611588565b9050919050565b600073ffffffffffffffffffffffffffffffffffffffff82169050919050565b60006115f6826115cb565b9050919050565b611606816115eb565b82525050565b61161581611056565b82525050565b600060608201905061163060008301866115fd565b61163d60208301856111df565b61164a604083018461160c565b949350505050565b60008190508160005260206000209050919050565b60006020601f8301049050919050565b600082821b905092915050565b6000600883026116b47fffffffffffffffffffffffffffffffffffffffffffffffffffffffffffffffff82611677565b6116be8683611677565b95508019841693508086168417925050509392505050565b6000819050919050565b60006116fb6116f66116f184610d4e565b6116d6565b610d4e565b9050919050565b6000819050919050565b611715836116e0565b61172961172182611702565b848454611684565b825550505050565b600090565b61173e611731565b61174981848461170c565b505050565b5b8181101561176d57611762600082611736565b60018101905061174f565b5050565b601f8211156117b25761178381611652565b61178c84611667565b8101602085101561179b578190505b6117af6117a785611667565b83018261174e565b50505b505050565b600082821c905092915050565b60006117d5600019846008026117b7565b1980831691505092915050565b60006117ee83836117c4565b9150826002028217905092915050565b61180782610eae565b67ffffffffffffffff8111156118205761181f611213565b5b61182a825461152e565b611835828285611771565b600060209050601f8311600181146118685760008415611856578287015190505b61186085826117e2565b8655506118c8565b601f19841661187686611652565b60005b8281101561189e57848901518255600182019150602085019450602081019050611879565b868310156118bb57848901516118b7601f8916826117c4565b8355505b6001600288020188555050505b505050505050565b60006040820190506118e560008301856115fd565b6118f260208301846111df565b939250505056fea26469706673582212207ac67286b00234cf7914e1001c14b0eff0fa04aa36c0e388091a672fc55ded8464736f6c63430008120033","opcodes":"PUSH1 0x80 PUSH1 0x40 MSTORE PUSH1 0x0 DUP1 SSTORE CALLVALUE DUP1 ISZERO PUSH2 0x14 JUMPI PUSH1 0x0 DUP1 REVERT JUMPDEST POP PUSH2 0x192F DUP1 PUSH2 0x24 PUSH1 0x0 CODECOPY PUSH1 0x0 RETURN INVALID PUSH1 0x80 PUSH1 0x40 MSTORE CALLVALUE DUP1 ISZERO PUSH2 0x10 JUMPI PUSH1 0x0 DUP1 REVERT JUMPDEST POP PUSH1 0x4 CALLDATASIZE LT PUSH2 0x62 JUMPI PUSH1 0x0 CALLDATALOAD PUSH1 0xE0 SHR DUP1 PUSH4 0x50FD7367 EQ PUSH2 0x67 JUMPI DUP1 PUSH4 0x57771A23 EQ PUSH2 0x99 JUMPI DUP1 PUSH4 0x9507D39A EQ PUSH2 0xB5 JUMPI DUP1 PUSH4 0xA87D942C EQ PUSH2 0xE5 JUMPI DUP1 PUSH4 0xB0C8F9DC EQ PUSH2 0x103 JUMPI DUP1 PUSH4 0xCBF7446B EQ PUSH2 0x11F JUMPI JUMPDEST PUSH1 0x0 DUP1 REVERT JUMPDEST PUSH2 0x81 PUSH1 0x4 DUP1 CALLDATASIZE SUB DUP2 ADD SWAP1 PUSH2 0x7C SWAP2 SWAP1 PUSH2 0xD84 JUMP JUMPDEST PUSH2 0x13B JUMP JUMPDEST PUSH1 0x40 MLOAD PUSH2 0x90 SWAP4 SWAP3 SWAP2 SWAP1 PUSH2 0x10FA JUMP JUMPDEST PUSH1 0x40 MLOAD DUP1 SWAP2 SUB SWAP1 RETURN JUMPDEST PUSH2 0xB3 PUSH1 0x4 DUP1 CALLDATASIZE SUB DUP2 ADD SWAP1 PUSH2 0xAE SWAP2 SWAP1 PUSH2 0x1146 JUMP JUMPDEST PUSH2 0x619 JUMP JUMPDEST STOP JUMPDEST PUSH2 0xCF PUSH1 0x4 DUP1 CALLDATASIZE SUB DUP2 ADD SWAP1 PUSH2 0xCA SWAP2 SWAP1 PUSH2 0x1146 JUMP JUMPDEST PUSH2 0x7E6 JUMP JUMPDEST PUSH1 0x40 MLOAD PUSH2 0xDC SWAP2 SWAP1 PUSH2 0x11BD JUMP JUMPDEST PUSH1 0x40 MLOAD DUP1 SWAP2 SUB SWAP1 RETURN JUMPDEST PUSH2 0xED PUSH2 0x9BC JUMP JUMPDEST PUSH1 0x40 MLOAD PUSH2 0xFA SWAP2 SWAP1 PUSH2 0x11EE JUMP JUMPDEST PUSH1 0x40 MLOAD DUP1 SWAP2 SUB SWAP1 RETURN JUMPDEST PUSH2 0x11D PUSH1 0x4 DUP1 CALLDATASIZE SUB DUP2 ADD SWAP1 PUSH2 0x118 SWAP2 SWAP1 PUSH2 0x133E JUMP JUMPDEST PUSH2 0xA06 JUMP JUMPDEST STOP JUMPDEST PUSH2 0x139 PUSH1 0x4 DUP1 CALLDATASIZE SUB DUP2 ADD SWAP1 PUSH2 0x134 SWAP2 SWAP1 PUSH2 0x1387 JUMP JUMPDEST PUSH2 0xBAB JUMP JUMPDEST STOP JUMPDEST PUSH1 0x60 DUP1 PUSH1 0x60 PUSH1 0x0 PUSH1 0x2 PUSH1 0x0 CALLER PUSH20 0xFFFFFFFFFFFFFFFFFFFFFFFFFFFFFFFFFFFFFFFF AND PUSH20 0xFFFFFFFFFFFFFFFFFFFFFFFFFFFFFFFFFFFFFFFF AND DUP2 MSTORE PUSH1 0x20 ADD SWAP1 DUP2 MSTORE PUSH1 0x20 ADD PUSH1 0x0 KECCAK256 DUP1 SLOAD SWAP1 POP SWAP1 POP DUP1 PUSH8 0xFFFFFFFFFFFFFFFF DUP2 GT ISZERO PUSH2 0x1A1 JUMPI PUSH2 0x1A0 PUSH2 0x1213 JUMP JUMPDEST JUMPDEST PUSH1 0x40 MLOAD SWAP1 DUP1 DUP3 MSTORE DUP1 PUSH1 0x20 MUL PUSH1 0x20 ADD DUP3 ADD PUSH1 0x40 MSTORE DUP1 ISZERO PUSH2 0x1CF JUMPI DUP2 PUSH1 0x20 ADD PUSH1 0x20 DUP3 MUL DUP1 CALLDATASIZE DUP4 CALLDATACOPY DUP1 DUP3 ADD SWAP2 POP POP SWAP1 POP JUMPDEST POP SWAP4 POP DUP1 PUSH8 0xFFFFFFFFFFFFFFFF DUP2 GT ISZERO PUSH2 0x1EC JUMPI PUSH2 0x1EB PUSH2 0x1213 JUMP JUMPDEST JUMPDEST PUSH1 0x40 MLOAD SWAP1 DUP1 DUP3 MSTORE DUP1 PUSH1 0x20 MUL PUSH1 0x20 ADD DUP3 ADD PUSH1 0x40 MSTORE DUP1 ISZERO PUSH2 0x21F JUMPI DUP2 PUSH1 0x20 ADD JUMPDEST PUSH1 0x60 DUP2 MSTORE PUSH1 0x20 ADD SWAP1 PUSH1 0x1 SWAP1 SUB SWAP1 DUP2 PUSH2 0x20A JUMPI SWAP1 POP JUMPDEST POP SWAP3 POP DUP1 PUSH8 0xFFFFFFFFFFFFFFFF DUP2 GT ISZERO PUSH2 0x23C JUMPI PUSH2 0x23B PUSH2 0x1213 JUMP JUMPDEST JUMPDEST PUSH1 0x40 MLOAD SWAP1 DUP1 DUP3 MSTORE DUP1 PUSH1 0x20 MUL PUSH1 0x20 ADD DUP3 ADD PUSH1 0x40 MSTORE DUP1 ISZERO PUSH2 0x26A JUMPI DUP2 PUSH1 0x20 ADD PUSH1 0x20 DUP3 MUL DUP1 CALLDATASIZE DUP4 CALLDATACOPY DUP1 DUP3 ADD SWAP2 POP POP SWAP1 POP JUMPDEST POP SWAP2 POP PUSH1 0x0 DUP1 PUSH1 0x0 DUP8 PUSH1 0x1 DUP11 PUSH2 0x280 SWAP2 SWAP1 PUSH2 0x1412 JUMP JUMPDEST PUSH2 0x28A SWAP2 SWAP1 PUSH2 0x1446 JUMP JUMPDEST SWAP1 POP PUSH1 0x0 PUSH1 0x1 DUP10 DUP12 PUSH2 0x29C SWAP2 SWAP1 PUSH2 0x1446 JUMP JUMPDEST PUSH2 0x2A6 SWAP2 SWAP1 PUSH2 0x1412 JUMP JUMPDEST SWAP1 POP PUSH1 0x0 DUP1 JUMPDEST DUP7 DUP2 LT ISZERO PUSH2 0x505 JUMPI PUSH1 0x0 PUSH1 0x2 PUSH1 0x0 CALLER PUSH20 0xFFFFFFFFFFFFFFFFFFFFFFFFFFFFFFFFFFFFFFFF AND PUSH20 0xFFFFFFFFFFFFFFFFFFFFFFFFFFFFFFFFFFFFFFFF AND DUP2 MSTORE PUSH1 0x20 ADD SWAP1 DUP2 MSTORE PUSH1 0x20 ADD PUSH1 0x0 KECCAK256 DUP3 DUP2 SLOAD DUP2 LT PUSH2 0x307 JUMPI PUSH2 0x306 PUSH2 0x1488 JUMP JUMPDEST JUMPDEST SWAP1 PUSH1 0x0 MSTORE PUSH1 0x20 PUSH1 0x0 KECCAK256 ADD SLOAD SWAP1 POP PUSH1 0x1 DUP1 DUP2 GT ISZERO PUSH2 0x327 JUMPI PUSH2 0x326 PUSH2 0x1000 JUMP JUMPDEST JUMPDEST PUSH1 0x1 PUSH1 0x0 DUP4 DUP2 MSTORE PUSH1 0x20 ADD SWAP1 DUP2 MSTORE PUSH1 0x20 ADD PUSH1 0x0 KECCAK256 PUSH1 0x2 ADD PUSH1 0x0 SWAP1 SLOAD SWAP1 PUSH2 0x100 EXP SWAP1 DIV PUSH1 0xFF AND PUSH1 0x1 DUP2 GT ISZERO PUSH2 0x35D JUMPI PUSH2 0x35C PUSH2 0x1000 JUMP JUMPDEST JUMPDEST SUB PUSH2 0x368 JUMPI POP PUSH2 0x4F2 JUMP JUMPDEST DUP3 DUP1 PUSH2 0x373 SWAP1 PUSH2 0x14B7 JUMP JUMPDEST SWAP4 POP POP DUP5 DUP4 LT DUP1 PUSH2 0x383 JUMPI POP DUP4 DUP4 GT JUMPDEST ISZERO PUSH2 0x38E JUMPI POP PUSH2 0x4F2 JUMP JUMPDEST DUP1 DUP12 DUP8 DUP2 MLOAD DUP2 LT PUSH2 0x3A2 JUMPI PUSH2 0x3A1 PUSH2 0x1488 JUMP JUMPDEST JUMPDEST PUSH1 0x20 MUL PUSH1 0x20 ADD ADD DUP2 DUP2 MSTORE POP POP PUSH1 0x1 PUSH1 0x0 DUP3 DUP2 MSTORE PUSH1 0x20 ADD SWAP1 DUP2 MSTORE PUSH1 0x20 ADD PUSH1 0x0 KECCAK256 PUSH1 0x1 ADD DUP1 SLOAD PUSH2 0x3CF SWAP1 PUSH2 0x152E JUMP JUMPDEST DUP1 PUSH1 0x1F ADD PUSH1 0x20 DUP1 SWAP2 DIV MUL PUSH1 0x20 ADD PUSH1 0x40 MLOAD SWAP1 DUP2 ADD PUSH1 0x40 MSTORE DUP1 SWAP3 SWAP2 SWAP1 DUP2 DUP2 MSTORE PUSH1 0x20 ADD DUP3 DUP1 SLOAD PUSH2 0x3FB SWAP1 PUSH2 0x152E JUMP JUMPDEST DUP1 ISZERO PUSH2 0x448 JUMPI DUP1 PUSH1 0x1F LT PUSH2 0x41D JUMPI PUSH2 0x100 DUP1 DUP4 SLOAD DIV MUL DUP4 MSTORE SWAP2 PUSH1 0x20 ADD SWAP2 PUSH2 0x448 JUMP JUMPDEST DUP3 ADD SWAP2 SWAP1 PUSH1 0x0 MSTORE PUSH1 0x20 PUSH1 0x0 KECCAK256 SWAP1 JUMPDEST DUP2 SLOAD DUP2 MSTORE SWAP1 PUSH1 0x1 ADD SWAP1 PUSH1 0x20 ADD DUP1 DUP4 GT PUSH2 0x42B JUMPI DUP3 SWAP1 SUB PUSH1 0x1F AND DUP3 ADD SWAP2 JUMPDEST POP POP POP POP POP DUP11 DUP8 DUP2 MLOAD DUP2 LT PUSH2 0x460 JUMPI PUSH2 0x45F PUSH2 0x1488 JUMP JUMPDEST JUMPDEST PUSH1 0x20 MUL PUSH1 0x20 ADD ADD DUP2 SWAP1 MSTORE POP PUSH1 0x1 PUSH1 0x0 DUP3 DUP2 MSTORE PUSH1 0x20 ADD SWAP1 DUP2 MSTORE PUSH1 0x20 ADD PUSH1 0x0 KECCAK256 PUSH1 0x2 ADD PUSH1 0x0 SWAP1 SLOAD SWAP1 PUSH2 0x100 EXP SWAP1 DIV PUSH1 0xFF AND DUP10 DUP8 DUP2 MLOAD DUP2 LT PUSH2 0x4A2 JUMPI PUSH2 0x4A1 PUSH2 0x1488 JUMP JUMPDEST JUMPDEST PUSH1 0x20 MUL PUSH1 0x20 ADD ADD SWAP1 PUSH1 0x1 DUP2 GT ISZERO PUSH2 0x4BC JUMPI PUSH2 0x4BB PUSH2 0x1000 JUMP JUMPDEST JUMPDEST SWAP1 DUP2 PUSH1 0x1 DUP2 GT ISZERO PUSH2 0x4D0 JUMPI PUSH2 0x4CF PUSH2 0x1000 JUMP JUMPDEST JUMPDEST DUP2 MSTORE POP POP DUP7 DUP1 PUSH2 0x4DF SWAP1 PUSH2 0x14B7 JUMP JUMPDEST SWAP8 POP POP DUP6 DUP1 PUSH2 0x4ED SWAP1 PUSH2 0x14B7 JUMP JUMPDEST SWAP7 POP POP POP JUMPDEST DUP1 DUP1 PUSH2 0x4FD SWAP1 PUSH2 0x14B7 JUMP JUMPDEST SWAP2 POP POP PUSH2 0x2AC JUMP JUMPDEST POP PUSH1 0x0 DUP6 SUB PUSH2 0x602 JUMPI PUSH1 0x1 PUSH8 0xFFFFFFFFFFFFFFFF DUP2 GT ISZERO PUSH2 0x529 JUMPI PUSH2 0x528 PUSH2 0x1213 JUMP JUMPDEST JUMPDEST PUSH1 0x40 MLOAD SWAP1 DUP1 DUP3 MSTORE DUP1 PUSH1 0x20 MUL PUSH1 0x20 ADD DUP3 ADD PUSH1 0x40 MSTORE DUP1 ISZERO PUSH2 0x557 JUMPI DUP2 PUSH1 0x20 ADD PUSH1 0x20 DUP3 MUL DUP1 CALLDATASIZE DUP4 CALLDATACOPY DUP1 DUP3 ADD SWAP2 POP POP SWAP1 POP JUMPDEST POP SWAP9 POP PUSH1 0x1 PUSH8 0xFFFFFFFFFFFFFFFF DUP2 GT ISZERO PUSH2 0x575 JUMPI PUSH2 0x574 PUSH2 0x1213 JUMP JUMPDEST JUMPDEST PUSH1 0x40 MLOAD SWAP1 DUP1 DUP3 MSTORE DUP1 PUSH1 0x20 MUL PUSH1 0x20 ADD DUP3 ADD PUSH1 0x40 MSTORE DUP1 ISZERO PUSH2 0x5A8 JUMPI DUP2 PUSH1 0x20 ADD JUMPDEST PUSH1 0x60 DUP2 MSTORE PUSH1 0x20 ADD SWAP1 PUSH1 0x1 SWAP1 SUB SWAP1 DUP2 PUSH2 0x593 JUMPI SWAP1 POP JUMPDEST POP SWAP8 POP PUSH1 0x1 PUSH8 0xFFFFFFFFFFFFFFFF DUP2 GT ISZERO PUSH2 0x5C6 JUMPI PUSH2 0x5C5 PUSH2 0x1213 JUMP JUMPDEST JUMPDEST PUSH1 0x40 MLOAD SWAP1 DUP1 DUP3 MSTORE DUP1 PUSH1 0x20 MUL PUSH1 0x20 ADD DUP3 ADD PUSH1 0x40 MSTORE DUP1 ISZERO PUSH2 0x5F4 JUMPI DUP2 PUSH1 0x20 ADD PUSH1 0x20 DUP3 MUL DUP1 CALLDATASIZE DUP4 CALLDATACOPY DUP1 DUP3 ADD SWAP2 POP POP SWAP1 POP JUMPDEST POP SWAP7 POP POP POP POP POP POP POP PUSH2 0x612 JUMP JUMPDEST DUP5 DUP10 MSTORE DUP5 DUP9 MSTORE DUP5 DUP8 MSTORE POP POP POP POP POP POP JUMPDEST SWAP3 POP SWAP3 POP SWAP3 JUMP JUMPDEST CALLER PUSH20 0xFFFFFFFFFFFFFFFFFFFFFFFFFFFFFFFFFFFFFFFF AND PUSH1 0x1 PUSH1 0x0 DUP4 DUP2 MSTORE PUSH1 0x20 ADD SWAP1 DUP2 MSTORE PUSH1 0x20 ADD PUSH1 0x0 KECCAK256 PUSH1 0x0 ADD PUSH1 0x0 SWAP1 SLOAD SWAP1 PUSH2 0x100 EXP SWAP1 DIV PUSH20 0xFFFFFFFFFFFFFFFFFFFFFFFFFFFFFFFFFFFFFFFF AND PUSH20 0xFFFFFFFFFFFFFFFFFFFFFFFFFFFFFFFFFFFFFFFF AND EQ PUSH2 0x6BD JUMPI PUSH1 0x40 MLOAD PUSH32 0x8C379A000000000000000000000000000000000000000000000000000000000 DUP2 MSTORE PUSH1 0x4 ADD PUSH2 0x6B4 SWAP1 PUSH2 0x15AB JUMP JUMPDEST PUSH1 0x40 MLOAD DUP1 SWAP2 SUB SWAP1 REVERT JUMPDEST PUSH1 0x0 PUSH1 0x1 DUP2 GT ISZERO PUSH2 0x6D1 JUMPI PUSH2 0x6D0 PUSH2 0x1000 JUMP JUMPDEST JUMPDEST PUSH1 0x1 PUSH1 0x0 DUP4 DUP2 MSTORE PUSH1 0x20 ADD SWAP1 DUP2 MSTORE PUSH1 0x20 ADD PUSH1 0x0 KECCAK256 PUSH1 0x2 ADD PUSH1 0x0 SWAP1 SLOAD SWAP1 PUSH2 0x100 EXP SWAP1 DIV PUSH1 0xFF AND PUSH1 0x1 DUP2 GT ISZERO PUSH2 0x707 JUMPI PUSH2 0x706 PUSH2 0x1000 JUMP JUMPDEST JUMPDEST EQ PUSH2 0x747 JUMPI PUSH1 0x40 MLOAD PUSH32 0x8C379A000000000000000000000000000000000000000000000000000000000 DUP2 MSTORE PUSH1 0x4 ADD PUSH2 0x73E SWAP1 PUSH2 0x15AB JUMP JUMPDEST PUSH1 0x40 MLOAD DUP1 SWAP2 SUB SWAP1 REVERT JUMPDEST PUSH1 0x1 DUP1 PUSH1 0x0 DUP4 DUP2 MSTORE PUSH1 0x20 ADD SWAP1 DUP2 MSTORE PUSH1 0x20 ADD PUSH1 0x0 KECCAK256 PUSH1 0x2 ADD PUSH1 0x0 PUSH2 0x100 EXP DUP2 SLOAD DUP2 PUSH1 0xFF MUL NOT AND SWAP1 DUP4 PUSH1 0x1 DUP2 GT ISZERO PUSH2 0x780 JUMPI PUSH2 0x77F PUSH2 0x1000 JUMP JUMPDEST JUMPDEST MUL OR SWAP1 SSTORE POP PUSH32 0x36D72F167243A95070B9C5500536C59137EAE1C6F2BDB3FE53AAD6084BFB3C4 CALLER DUP3 PUSH1 0x1 PUSH1 0x0 DUP6 DUP2 MSTORE PUSH1 0x20 ADD SWAP1 DUP2 MSTORE PUSH1 0x20 ADD PUSH1 0x0 KECCAK256 PUSH1 0x2 ADD PUSH1 0x0 SWAP1 SLOAD SWAP1 PUSH2 0x100 EXP SWAP1 DIV PUSH1 0xFF AND PUSH1 0x40 MLOAD PUSH2 0x7DB SWAP4 SWAP3 SWAP2 SWAP1 PUSH2 0x161B JUMP JUMPDEST PUSH1 0x40 MLOAD DUP1 SWAP2 SUB SWAP1 LOG1 POP JUMP JUMPDEST PUSH1 0x60 CALLER PUSH20 0xFFFFFFFFFFFFFFFFFFFFFFFFFFFFFFFFFFFFFFFF AND PUSH1 0x1 PUSH1 0x0 DUP5 DUP2 MSTORE PUSH1 0x20 ADD SWAP1 DUP2 MSTORE PUSH1 0x20 ADD PUSH1 0x0 KECCAK256 PUSH1 0x0 ADD PUSH1 0x0 SWAP1 SLOAD SWAP1 PUSH2 0x100 EXP SWAP1 DIV PUSH20 0xFFFFFFFFFFFFFFFFFFFFFFFFFFFFFFFFFFFFFFFF AND PUSH20 0xFFFFFFFFFFFFFFFFFFFFFFFFFFFFFFFFFFFFFFFF AND EQ PUSH2 0x88C JUMPI PUSH1 0x40 MLOAD PUSH32 0x8C379A000000000000000000000000000000000000000000000000000000000 DUP2 MSTORE PUSH1 0x4 ADD PUSH2 0x883 SWAP1 PUSH2 0x15AB JUMP JUMPDEST PUSH1 0x40 MLOAD DUP1 SWAP2 SUB SWAP1 REVERT JUMPDEST PUSH1 0x0 PUSH1 0x1 DUP2 GT ISZERO PUSH2 0x8A0 JUMPI PUSH2 0x89F PUSH2 0x1000 JUMP JUMPDEST JUMPDEST PUSH1 0x1 PUSH1 0x0 DUP5 DUP2 MSTORE PUSH1 0x20 ADD SWAP1 DUP2 MSTORE PUSH1 0x20 ADD PUSH1 0x0 KECCAK256 PUSH1 0x2 ADD PUSH1 0x0 SWAP1 SLOAD SWAP1 PUSH2 0x100 EXP SWAP1 DIV PUSH1 0xFF AND PUSH1 0x1 DUP2 GT ISZERO PUSH2 0x8D6 JUMPI PUSH2 0x8D5 PUSH2 0x1000 JUMP JUMPDEST JUMPDEST EQ PUSH2 0x916 JUMPI PUSH1 0x40 MLOAD PUSH32 0x8C379A000000000000000000000000000000000000000000000000000000000 DUP2 MSTORE PUSH1 0x4 ADD PUSH2 0x90D SWAP1 PUSH2 0x15AB JUMP JUMPDEST PUSH1 0x40 MLOAD DUP1 SWAP2 SUB SWAP1 REVERT JUMPDEST PUSH1 0x1 PUSH1 0x0 DUP4 DUP2 MSTORE PUSH1 0x20 ADD SWAP1 DUP2 MSTORE PUSH1 0x20 ADD PUSH1 0x0 KECCAK256 PUSH1 0x1 ADD DUP1 SLOAD PUSH2 0x937 SWAP1 PUSH2 0x152E JUMP JUMPDEST DUP1 PUSH1 0x1F ADD PUSH1 0x20 DUP1 SWAP2 DIV MUL PUSH1 0x20 ADD PUSH1 0x40 MLOAD SWAP1 DUP2 ADD PUSH1 0x40 MSTORE DUP1 SWAP3 SWAP2 SWAP1 DUP2 DUP2 MSTORE PUSH1 0x20 ADD DUP3 DUP1 SLOAD PUSH2 0x963 SWAP1 PUSH2 0x152E JUMP JUMPDEST DUP1 ISZERO PUSH2 0x9B0 JUMPI DUP1 PUSH1 0x1F LT PUSH2 0x985 JUMPI PUSH2 0x100 DUP1 DUP4 SLOAD DIV MUL DUP4 MSTORE SWAP2 PUSH1 0x20 ADD SWAP2 PUSH2 0x9B0 JUMP JUMPDEST DUP3 ADD SWAP2 SWAP1 PUSH1 0x0 MSTORE PUSH1 0x20 PUSH1 0x0 KECCAK256 SWAP1 JUMPDEST DUP2 SLOAD DUP2 MSTORE SWAP1 PUSH1 0x1 ADD SWAP1 PUSH1 0x20 ADD DUP1 DUP4 GT PUSH2 0x993 JUMPI DUP3 SWAP1 SUB PUSH1 0x1F AND DUP3 ADD SWAP2 JUMPDEST POP POP POP POP POP SWAP1 POP SWAP2 SWAP1 POP JUMP JUMPDEST PUSH1 0x0 PUSH1 0x2 PUSH1 0x0 CALLER PUSH20 0xFFFFFFFFFFFFFFFFFFFFFFFFFFFFFFFFFFFFFFFF AND PUSH20 0xFFFFFFFFFFFFFFFFFFFFFFFFFFFFFFFFFFFFFFFF AND DUP2 MSTORE PUSH1 0x20 ADD SWAP1 DUP2 MSTORE PUSH1 0x20 ADD PUSH1 0x0 KECCAK256 DUP1 SLOAD SWAP1 POP SWAP1 POP SWAP1 JUMP JUMPDEST PUSH1 0x0 DUP1 DUP2 SLOAD DUP1 SWAP3 SWAP2 SWAP1 PUSH2 0xA18 SWAP1 PUSH2 0x14B7 JUMP JUMPDEST SWAP2 SWAP1 POP SSTORE POP PUSH1 0x40 MLOAD DUP1 PUSH1 0x60 ADD PUSH1 0x40 MSTORE DUP1 CALLER PUSH20 0xFFFFFFFFFFFFFFFFFFFFFFFFFFFFFFFFFFFFFFFF AND DUP2 MSTORE PUSH1 0x20 ADD DUP3 DUP2 MSTORE PUSH1 0x20 ADD PUSH1 0x0 PUSH1 0x1 DUP2 GT ISZERO PUSH2 0xA5E JUMPI PUSH2 0xA5D PUSH2 0x1000 JUMP JUMPDEST JUMPDEST DUP2 MSTORE POP PUSH1 0x1 PUSH1 0x0 DUP1 SLOAD DUP2 MSTORE PUSH1 0x20 ADD SWAP1 DUP2 MSTORE PUSH1 0x20 ADD PUSH1 0x0 KECCAK256 PUSH1 0x0 DUP3 ADD MLOAD DUP2 PUSH1 0x0 ADD PUSH1 0x0 PUSH2 0x100 EXP DUP2 SLOAD DUP2 PUSH20 0xFFFFFFFFFFFFFFFFFFFFFFFFFFFFFFFFFFFFFFFF MUL NOT AND SWAP1 DUP4 PUSH20 0xFFFFFFFFFFFFFFFFFFFFFFFFFFFFFFFFFFFFFFFF AND MUL OR SWAP1 SSTORE POP PUSH1 0x20 DUP3 ADD MLOAD DUP2 PUSH1 0x1 ADD SWAP1 DUP2 PUSH2 0xAD1 SWAP2 SWAP1 PUSH2 0x17FE JUMP JUMPDEST POP PUSH1 0x40 DUP3 ADD MLOAD DUP2 PUSH1 0x2 ADD PUSH1 0x0 PUSH2 0x100 EXP DUP2 SLOAD DUP2 PUSH1 0xFF MUL NOT AND SWAP1 DUP4 PUSH1 0x1 DUP2 GT ISZERO PUSH2 0xAFD JUMPI PUSH2 0xAFC PUSH2 0x1000 JUMP JUMPDEST JUMPDEST MUL OR SWAP1 SSTORE POP SWAP1 POP POP PUSH1 0x2 PUSH1 0x0 CALLER PUSH20 0xFFFFFFFFFFFFFFFFFFFFFFFFFFFFFFFFFFFFFFFF AND PUSH20 0xFFFFFFFFFFFFFFFFFFFFFFFFFFFFFFFFFFFFFFFF AND DUP2 MSTORE PUSH1 0x20 ADD SWAP1 DUP2 MSTORE PUSH1 0x20 ADD PUSH1 0x0 KECCAK256 PUSH1 0x0 SLOAD SWAP1 DUP1 PUSH1 0x1 DUP2 SLOAD ADD DUP1 DUP3 SSTORE DUP1 SWAP2 POP POP PUSH1 0x1 SWAP1 SUB SWAP1 PUSH1 0x0 MSTORE PUSH1 0x20 PUSH1 0x0 KECCAK256 ADD PUSH1 0x0 SWAP1 SWAP2 SWAP1 SWAP2 SWAP1 SWAP2 POP SSTORE PUSH32 0x2728C9D3205D667BBC0EEFDFEDA366261B4D021949630C047F3E5834B30611AB CALLER PUSH1 0x0 SLOAD PUSH1 0x40 MLOAD PUSH2 0xBA0 SWAP3 SWAP2 SWAP1 PUSH2 0x18D0 JUMP JUMPDEST PUSH1 0x40 MLOAD DUP1 SWAP2 SUB SWAP1 LOG1 POP JUMP JUMPDEST CALLER PUSH20 0xFFFFFFFFFFFFFFFFFFFFFFFFFFFFFFFFFFFFFFFF AND PUSH1 0x1 PUSH1 0x0 DUP5 DUP2 MSTORE PUSH1 0x20 ADD SWAP1 DUP2 MSTORE PUSH1 0x20 ADD PUSH1 0x0 KECCAK256 PUSH1 0x0 ADD PUSH1 0x0 SWAP1 SLOAD SWAP1 PUSH2 0x100 EXP SWAP1 DIV PUSH20 0xFFFFFFFFFFFFFFFFFFFFFFFFFFFFFFFFFFFFFFFF AND PUSH20 0xFFFFFFFFFFFFFFFFFFFFFFFFFFFFFFFFFFFFFFFF AND EQ PUSH2 0xC4F JUMPI PUSH1 0x40 MLOAD PUSH32 0x8C379A000000000000000000000000000000000000000000000000000000000 DUP2 MSTORE PUSH1 0x4 ADD PUSH2 0xC46 SWAP1 PUSH2 0x15AB JUMP JUMPDEST PUSH1 0x40 MLOAD DUP1 SWAP2 SUB SWAP1 REVERT JUMPDEST PUSH1 0x0 PUSH1 0x1 DUP2 GT ISZERO PUSH2 0xC63 JUMPI PUSH2 0xC62 PUSH2 0x1000 JUMP JUMPDEST JUMPDEST PUSH1 0x1 PUSH1 0x0 DUP5 DUP2 MSTORE PUSH1 0x20 ADD SWAP1 DUP2 MSTORE PUSH1 0x20 ADD PUSH1 0x0 KECCAK256 PUSH1 0x2 ADD PUSH1 0x0 SWAP1 SLOAD SWAP1 PUSH2 0x100 EXP SWAP1 DIV PUSH1 0xFF AND PUSH1 0x1 DUP2 GT ISZERO PUSH2 0xC99 JUMPI PUSH2 0xC98 PUSH2 0x1000 JUMP JUMPDEST JUMPDEST EQ PUSH2 0xCD9 JUMPI PUSH1 0x40 MLOAD PUSH32 0x8C379A000000000000000000000000000000000000000000000000000000000 DUP2 MSTORE PUSH1 0x4 ADD PUSH2 0xCD0 SWAP1 PUSH2 0x15AB JUMP JUMPDEST PUSH1 0x40 MLOAD DUP1 SWAP2 SUB SWAP1 REVERT JUMPDEST DUP1 PUSH1 0x1 PUSH1 0x0 DUP5 DUP2 MSTORE PUSH1 0x20 ADD SWAP1 DUP2 MSTORE PUSH1 0x20 ADD PUSH1 0x0 KECCAK256 PUSH1 0x1 ADD SWAP1 DUP2 PUSH2 0xCFC SWAP2 SWAP1 PUSH2 0x17FE JUMP JUMPDEST POP PUSH32 0x5A3E025AD8B0FFC3940134B57218EBD90CFA0ED8A0EC0FDD53BE572C480CF2CD CALLER DUP4 PUSH1 0x40 MLOAD PUSH2 0xD2E SWAP3 SWAP2 SWAP1 PUSH2 0x18D0 JUMP JUMPDEST PUSH1 0x40 MLOAD DUP1 SWAP2 SUB SWAP1 LOG1 POP POP JUMP JUMPDEST PUSH1 0x0 PUSH1 0x40 MLOAD SWAP1 POP SWAP1 JUMP JUMPDEST PUSH1 0x0 DUP1 REVERT JUMPDEST PUSH1 0x0 DUP1 REVERT JUMPDEST PUSH1 0x0 DUP2 SWAP1 POP SWAP2 SWAP1 POP JUMP JUMPDEST PUSH2 0xD61 DUP2 PUSH2 0xD4E JUMP JUMPDEST DUP2 EQ PUSH2 0xD6C JUMPI PUSH1 0x0 DUP1 REVERT JUMPDEST POP JUMP JUMPDEST PUSH1 0x0 DUP2 CALLDATALOAD SWAP1 POP PUSH2 0xD7E DUP2 PUSH2 0xD58 JUMP JUMPDEST SWAP3 SWAP2 POP POP JUMP JUMPDEST PUSH1 0x0 DUP1 PUSH1 0x40 DUP4 DUP6 SUB SLT ISZERO PUSH2 0xD9B JUMPI PUSH2 0xD9A PUSH2 0xD44 JUMP JUMPDEST JUMPDEST PUSH1 0x0 PUSH2 0xDA9 DUP6 DUP3 DUP7 ADD PUSH2 0xD6F JUMP JUMPDEST SWAP3 POP POP PUSH1 0x20 PUSH2 0xDBA DUP6 DUP3 DUP7 ADD PUSH2 0xD6F JUMP JUMPDEST SWAP2 POP POP SWAP3 POP SWAP3 SWAP1 POP JUMP JUMPDEST PUSH1 0x0 DUP2 MLOAD SWAP1 POP SWAP2 SWAP1 POP JUMP JUMPDEST PUSH1 0x0 DUP3 DUP3 MSTORE PUSH1 0x20 DUP3 ADD SWAP1 POP SWAP3 SWAP2 POP POP JUMP JUMPDEST PUSH1 0x0 DUP2 SWAP1 POP PUSH1 0x20 DUP3 ADD SWAP1 POP SWAP2 SWAP1 POP JUMP JUMPDEST PUSH2 0xDF9 DUP2 PUSH2 0xD4E JUMP JUMPDEST DUP3 MSTORE POP POP JUMP JUMPDEST PUSH1 0x0 PUSH2 0xE0B DUP4 DUP4 PUSH2 0xDF0 JUMP JUMPDEST PUSH1 0x20 DUP4 ADD SWAP1 POP SWAP3 SWAP2 POP POP JUMP JUMPDEST PUSH1 0x0 PUSH1 0x20 DUP3 ADD SWAP1 POP SWAP2 SWAP1 POP JUMP JUMPDEST PUSH1 0x0 PUSH2 0xE2F DUP3 PUSH2 0xDC4 JUMP JUMPDEST PUSH2 0xE39 DUP2 DUP6 PUSH2 0xDCF JUMP JUMPDEST SWAP4 POP PUSH2 0xE44 DUP4 PUSH2 0xDE0 JUMP JUMPDEST DUP1 PUSH1 0x0 JUMPDEST DUP4 DUP2 LT ISZERO PUSH2 0xE75 JUMPI DUP2 MLOAD PUSH2 0xE5C DUP9 DUP3 PUSH2 0xDFF JUMP JUMPDEST SWAP8 POP PUSH2 0xE67 DUP4 PUSH2 0xE17 JUMP JUMPDEST SWAP3 POP POP PUSH1 0x1 DUP2 ADD SWAP1 POP PUSH2 0xE48 JUMP JUMPDEST POP DUP6 SWAP4 POP POP POP POP SWAP3 SWAP2 POP POP JUMP JUMPDEST PUSH1 0x0 DUP2 MLOAD SWAP1 POP SWAP2 SWAP1 POP JUMP JUMPDEST PUSH1 0x0 DUP3 DUP3 MSTORE PUSH1 0x20 DUP3 ADD SWAP1 POP SWAP3 SWAP2 POP POP JUMP JUMPDEST PUSH1 0x0 DUP2 SWAP1 POP PUSH1 0x20 DUP3 ADD SWAP1 POP SWAP2 SWAP1 POP JUMP JUMPDEST PUSH1 0x0 DUP2 MLOAD SWAP1 POP SWAP2 SWAP1 POP JUMP JUMPDEST PUSH1 0x0 DUP3 DUP3 MSTORE PUSH1 0x20 DUP3 ADD SWAP1 POP SWAP3 SWAP2 POP POP JUMP JUMPDEST PUSH1 0x0 JUMPDEST DUP4 DUP2 LT ISZERO PUSH2 0xEE8 JUMPI DUP1 DUP3 ADD MLOAD DUP2 DUP5 ADD MSTORE PUSH1 0x20 DUP2 ADD SWAP1 POP PUSH2 0xECD JUMP JUMPDEST PUSH1 0x0 DUP5 DUP5 ADD MSTORE POP POP POP POP JUMP JUMPDEST PUSH1 0x0 PUSH1 0x1F NOT PUSH1 0x1F DUP4 ADD AND SWAP1 POP SWAP2 SWAP1 POP JUMP JUMPDEST PUSH1 0x0 PUSH2 0xF10 DUP3 PUSH2 0xEAE JUMP JUMPDEST PUSH2 0xF1A DUP2 DUP6 PUSH2 0xEB9 JUMP JUMPDEST SWAP4 POP PUSH2 0xF2A DUP2 DUP6 PUSH1 0x20 DUP7 ADD PUSH2 0xECA JUMP JUMPDEST PUSH2 0xF33 DUP2 PUSH2 0xEF4 JUMP JUMPDEST DUP5 ADD SWAP2 POP POP SWAP3 SWAP2 POP POP JUMP JUMPDEST PUSH1 0x0 PUSH2 0xF4A DUP4 DUP4 PUSH2 0xF05 JUMP JUMPDEST SWAP1 POP SWAP3 SWAP2 POP POP JUMP JUMPDEST PUSH1 0x0 PUSH1 0x20 DUP3 ADD SWAP1 POP SWAP2 SWAP1 POP JUMP JUMPDEST PUSH1 0x0 PUSH2 0xF6A DUP3 PUSH2 0xE82 JUMP JUMPDEST PUSH2 0xF74 DUP2 DUP6 PUSH2 0xE8D JUMP JUMPDEST SWAP4 POP DUP4 PUSH1 0x20 DUP3 MUL DUP6 ADD PUSH2 0xF86 DUP6 PUSH2 0xE9E JUMP JUMPDEST DUP1 PUSH1 0x0 JUMPDEST DUP6 DUP2 LT ISZERO PUSH2 0xFC2 JUMPI DUP5 DUP5 SUB DUP10 MSTORE DUP2 MLOAD PUSH2 0xFA3 DUP6 DUP3 PUSH2 0xF3E JUMP JUMPDEST SWAP5 POP PUSH2 0xFAE DUP4 PUSH2 0xF52 JUMP JUMPDEST SWAP3 POP PUSH1 0x20 DUP11 ADD SWAP10 POP POP PUSH1 0x1 DUP2 ADD SWAP1 POP PUSH2 0xF8A JUMP JUMPDEST POP DUP3 SWAP8 POP DUP8 SWAP6 POP POP POP POP POP POP SWAP3 SWAP2 POP POP JUMP JUMPDEST PUSH1 0x0 DUP2 MLOAD SWAP1 POP SWAP2 SWAP1 POP JUMP JUMPDEST PUSH1 0x0 DUP3 DUP3 MSTORE PUSH1 0x20 DUP3 ADD SWAP1 POP SWAP3 SWAP2 POP POP JUMP JUMPDEST PUSH1 0x0 DUP2 SWAP1 POP PUSH1 0x20 DUP3 ADD SWAP1 POP SWAP2 SWAP1 POP JUMP JUMPDEST PUSH32 0x4E487B7100000000000000000000000000000000000000000000000000000000 PUSH1 0x0 MSTORE PUSH1 0x21 PUSH1 0x4 MSTORE PUSH1 0x24 PUSH1 0x0 REVERT JUMPDEST PUSH1 0x2 DUP2 LT PUSH2 0x1040 JUMPI PUSH2 0x103F PUSH2 0x1000 JUMP JUMPDEST JUMPDEST POP JUMP JUMPDEST PUSH1 0x0 DUP2 SWAP1 POP PUSH2 0x1051 DUP3 PUSH2 0x102F JUMP JUMPDEST SWAP2 SWAP1 POP JUMP JUMPDEST PUSH1 0x0 PUSH2 0x1061 DUP3 PUSH2 0x1043 JUMP JUMPDEST SWAP1 POP SWAP2 SWAP1 POP JUMP JUMPDEST PUSH2 0x1071 DUP2 PUSH2 0x1056 JUMP JUMPDEST DUP3 MSTORE POP POP JUMP JUMPDEST PUSH1 0x0 PUSH2 0x1083 DUP4 DUP4 PUSH2 0x1068 JUMP JUMPDEST PUSH1 0x20 DUP4 ADD SWAP1 POP SWAP3 SWAP2 POP POP JUMP JUMPDEST PUSH1 0x0 PUSH1 0x20 DUP3 ADD SWAP1 POP SWAP2 SWAP1 POP JUMP JUMPDEST PUSH1 0x0 PUSH2 0x10A7 DUP3 PUSH2 0xFD4 JUMP JUMPDEST PUSH2 0x10B1 DUP2 DUP6 PUSH2 0xFDF JUMP JUMPDEST SWAP4 POP PUSH2 0x10BC DUP4 PUSH2 0xFF0 JUMP JUMPDEST DUP1 PUSH1 0x0 JUMPDEST DUP4 DUP2 LT ISZERO PUSH2 0x10ED JUMPI DUP2 MLOAD PUSH2 0x10D4 DUP9 DUP3 PUSH2 0x1077 JUMP JUMPDEST SWAP8 POP PUSH2 0x10DF DUP4 PUSH2 0x108F JUMP JUMPDEST SWAP3 POP POP PUSH1 0x1 DUP2 ADD SWAP1 POP PUSH2 0x10C0 JUMP JUMPDEST POP DUP6 SWAP4 POP POP POP POP SWAP3 SWAP2 POP POP JUMP JUMPDEST PUSH1 0x0 PUSH1 0x60 DUP3 ADD SWAP1 POP DUP2 DUP2 SUB PUSH1 0x0 DUP4 ADD MSTORE PUSH2 0x1114 DUP2 DUP7 PUSH2 0xE24 JUMP JUMPDEST SWAP1 POP DUP2 DUP2 SUB PUSH1 0x20 DUP4 ADD MSTORE PUSH2 0x1128 DUP2 DUP6 PUSH2 0xF5F JUMP JUMPDEST SWAP1 POP DUP2 DUP2 SUB PUSH1 0x40 DUP4 ADD MSTORE PUSH2 0x113C DUP2 DUP5 PUSH2 0x109C JUMP JUMPDEST SWAP1 POP SWAP5 SWAP4 POP POP POP POP JUMP JUMPDEST PUSH1 0x0 PUSH1 0x20 DUP3 DUP5 SUB SLT ISZERO PUSH2 0x115C JUMPI PUSH2 0x115B PUSH2 0xD44 JUMP JUMPDEST JUMPDEST PUSH1 0x0 PUSH2 0x116A DUP5 DUP3 DUP6 ADD PUSH2 0xD6F JUMP JUMPDEST SWAP2 POP POP SWAP3 SWAP2 POP POP JUMP JUMPDEST PUSH1 0x0 DUP3 DUP3 MSTORE PUSH1 0x20 DUP3 ADD SWAP1 POP SWAP3 SWAP2 POP POP JUMP JUMPDEST PUSH1 0x0 PUSH2 0x118F DUP3 PUSH2 0xEAE JUMP JUMPDEST PUSH2 0x1199 DUP2 DUP6 PUSH2 0x1173 JUMP JUMPDEST SWAP4 POP PUSH2 0x11A9 DUP2 DUP6 PUSH1 0x20 DUP7 ADD PUSH2 0xECA JUMP JUMPDEST PUSH2 0x11B2 DUP2 PUSH2 0xEF4 JUMP JUMPDEST DUP5 ADD SWAP2 POP POP SWAP3 SWAP2 POP POP JUMP JUMPDEST PUSH1 0x0 PUSH1 0x20 DUP3 ADD SWAP1 POP DUP2 DUP2 SUB PUSH1 0x0 DUP4 ADD MSTORE PUSH2 0x11D7 DUP2 DUP5 PUSH2 0x1184 JUMP JUMPDEST SWAP1 POP SWAP3 SWAP2 POP POP JUMP JUMPDEST PUSH2 0x11E8 DUP2 PUSH2 0xD4E JUMP JUMPDEST DUP3 MSTORE POP POP JUMP JUMPDEST PUSH1 0x0 PUSH1 0x20 DUP3 ADD SWAP1 POP PUSH2 0x1203 PUSH1 0x0 DUP4 ADD DUP5 PUSH2 0x11DF JUMP JUMPDEST SWAP3 SWAP2 POP POP JUMP JUMPDEST PUSH1 0x0 DUP1 REVERT JUMPDEST PUSH1 0x0 DUP1 REVERT JUMPDEST PUSH32 0x4E487B7100000000000000000000000000000000000000000000000000000000 PUSH1 0x0 MSTORE PUSH1 0x41 PUSH1 0x4 MSTORE PUSH1 0x24 PUSH1 0x0 REVERT JUMPDEST PUSH2 0x124B DUP3 PUSH2 0xEF4 JUMP JUMPDEST DUP2 ADD DUP2 DUP2 LT PUSH8 0xFFFFFFFFFFFFFFFF DUP3 GT OR ISZERO PUSH2 0x126A JUMPI PUSH2 0x1269 PUSH2 0x1213 JUMP JUMPDEST JUMPDEST DUP1 PUSH1 0x40 MSTORE POP POP POP JUMP JUMPDEST PUSH1 0x0 PUSH2 0x127D PUSH2 0xD3A JUMP JUMPDEST SWAP1 POP PUSH2 0x1289 DUP3 DUP3 PUSH2 0x1242 JUMP JUMPDEST SWAP2 SWAP1 POP JUMP JUMPDEST PUSH1 0x0 PUSH8 0xFFFFFFFFFFFFFFFF DUP3 GT ISZERO PUSH2 0x12A9 JUMPI PUSH2 0x12A8 PUSH2 0x1213 JUMP JUMPDEST JUMPDEST PUSH2 0x12B2 DUP3 PUSH2 0xEF4 JUMP JUMPDEST SWAP1 POP PUSH1 0x20 DUP2 ADD SWAP1 POP SWAP2 SWAP1 POP JUMP JUMPDEST DUP3 DUP2 DUP4 CALLDATACOPY PUSH1 0x0 DUP4 DUP4 ADD MSTORE POP POP POP JUMP JUMPDEST PUSH1 0x0 PUSH2 0x12E1 PUSH2 0x12DC DUP5 PUSH2 0x128E JUMP JUMPDEST PUSH2 0x1273 JUMP JUMPDEST SWAP1 POP DUP3 DUP2 MSTORE PUSH1 0x20 DUP2 ADD DUP5 DUP5 DUP5 ADD GT ISZERO PUSH2 0x12FD JUMPI PUSH2 0x12FC PUSH2 0x120E JUMP JUMPDEST JUMPDEST PUSH2 0x1308 DUP5 DUP3 DUP6 PUSH2 0x12BF JUMP JUMPDEST POP SWAP4 SWAP3 POP POP POP JUMP JUMPDEST PUSH1 0x0 DUP3 PUSH1 0x1F DUP4 ADD SLT PUSH2 0x1325 JUMPI PUSH2 0x1324 PUSH2 0x1209 JUMP JUMPDEST JUMPDEST DUP2 CALLDATALOAD PUSH2 0x1335 DUP5 DUP3 PUSH1 0x20 DUP7 ADD PUSH2 0x12CE JUMP JUMPDEST SWAP2 POP POP SWAP3 SWAP2 POP POP JUMP JUMPDEST PUSH1 0x0 PUSH1 0x20 DUP3 DUP5 SUB SLT ISZERO PUSH2 0x1354 JUMPI PUSH2 0x1353 PUSH2 0xD44 JUMP JUMPDEST JUMPDEST PUSH1 0x0 DUP3 ADD CALLDATALOAD PUSH8 0xFFFFFFFFFFFFFFFF DUP2 GT ISZERO PUSH2 0x1372 JUMPI PUSH2 0x1371 PUSH2 0xD49 JUMP JUMPDEST JUMPDEST PUSH2 0x137E DUP5 DUP3 DUP6 ADD PUSH2 0x1310 JUMP JUMPDEST SWAP2 POP POP SWAP3 SWAP2 POP POP JUMP JUMPDEST PUSH1 0x0 DUP1 PUSH1 0x40 DUP4 DUP6 SUB SLT ISZERO PUSH2 0x139E JUMPI PUSH2 0x139D PUSH2 0xD44 JUMP JUMPDEST JUMPDEST PUSH1 0x0 PUSH2 0x13AC DUP6 DUP3 DUP7 ADD PUSH2 0xD6F JUMP JUMPDEST SWAP3 POP POP PUSH1 0x20 DUP4 ADD CALLDATALOAD PUSH8 0xFFFFFFFFFFFFFFFF DUP2 GT ISZERO PUSH2 0x13CD JUMPI PUSH2 0x13CC PUSH2 0xD49 JUMP JUMPDEST JUMPDEST PUSH2 0x13D9 DUP6 DUP3 DUP7 ADD PUSH2 0x1310 JUMP JUMPDEST SWAP2 POP POP SWAP3 POP SWAP3 SWAP1 POP JUMP JUMPDEST PUSH32 0x4E487B7100000000000000000000000000000000000000000000000000000000 PUSH1 0x0 MSTORE PUSH1 0x11 PUSH1 0x4 MSTORE PUSH1 0x24 PUSH1 0x0 REVERT JUMPDEST PUSH1 0x0 PUSH2 0x141D DUP3 PUSH2 0xD4E JUMP JUMPDEST SWAP2 POP PUSH2 0x1428 DUP4 PUSH2 0xD4E JUMP JUMPDEST SWAP3 POP DUP3 DUP3 SUB SWAP1 POP DUP2 DUP2 GT ISZERO PUSH2 0x1440 JUMPI PUSH2 0x143F PUSH2 0x13E3 JUMP JUMPDEST JUMPDEST SWAP3 SWAP2 POP POP JUMP JUMPDEST PUSH1 0x0 PUSH2 0x1451 DUP3 PUSH2 0xD4E JUMP JUMPDEST SWAP2 POP PUSH2 0x145C DUP4 PUSH2 0xD4E JUMP JUMPDEST SWAP3 POP DUP3 DUP3 MUL PUSH2 0x146A DUP2 PUSH2 0xD4E JUMP JUMPDEST SWAP2 POP DUP3 DUP3 DIV DUP5 EQ DUP4 ISZERO OR PUSH2 0x1481 JUMPI PUSH2 0x1480 PUSH2 0x13E3 JUMP JUMPDEST JUMPDEST POP SWAP3 SWAP2 POP POP JUMP JUMPDEST PUSH32 0x4E487B7100000000000000000000000000000000000000000000000000000000 PUSH1 0x0 MSTORE PUSH1 0x32 PUSH1 0x4 MSTORE PUSH1 0x24 PUSH1 0x0 REVERT JUMPDEST PUSH1 0x0 PUSH2 0x14C2 DUP3 PUSH2 0xD4E JUMP JUMPDEST SWAP2 POP PUSH32 0xFFFFFFFFFFFFFFFFFFFFFFFFFFFFFFFFFFFFFFFFFFFFFFFFFFFFFFFFFFFFFFFF DUP3 SUB PUSH2 0x14F4 JUMPI PUSH2 0x14F3 PUSH2 0x13E3 JUMP JUMPDEST JUMPDEST PUSH1 0x1 DUP3 ADD SWAP1 POP SWAP2 SWAP1 POP JUMP JUMPDEST PUSH32 0x4E487B7100000000000000000000000000000000000000000000000000000000 PUSH1 0x0 MSTORE PUSH1 0x22 PUSH1 0x4 MSTORE PUSH1 0x24 PUSH1 0x0 REVERT JUMPDEST PUSH1 0x0 PUSH1 0x2 DUP3 DIV SWAP1 POP PUSH1 0x1 DUP3 AND DUP1 PUSH2 0x1546 JUMPI PUSH1 0x7F DUP3 AND SWAP2 POP JUMPDEST PUSH1 0x20 DUP3 LT DUP2 SUB PUSH2 0x1559 JUMPI PUSH2 0x1558 PUSH2 0x14FF JUMP JUMPDEST JUMPDEST POP SWAP2 SWAP1 POP JUMP JUMPDEST PUSH32 0x4461746120646F6573206E6F7420657869737400000000000000000000000000 PUSH1 0x0 DUP3 ADD MSTORE POP JUMP JUMPDEST PUSH1 0x0 PUSH2 0x1595 PUSH1 0x13 DUP4 PUSH2 0x1173 JUMP JUMPDEST SWAP2 POP PUSH2 0x15A0 DUP3 PUSH2 0x155F JUMP JUMPDEST PUSH1 0x20 DUP3 ADD SWAP1 POP SWAP2 SWAP1 POP JUMP JUMPDEST PUSH1 0x0 PUSH1 0x20 DUP3 ADD SWAP1 POP DUP2 DUP2 SUB PUSH1 0x0 DUP4 ADD MSTORE PUSH2 0x15C4 DUP2 PUSH2 0x1588 JUMP JUMPDEST SWAP1 POP SWAP2 SWAP1 POP JUMP JUMPDEST PUSH1 0x0 PUSH20 0xFFFFFFFFFFFFFFFFFFFFFFFFFFFFFFFFFFFFFFFF DUP3 AND SWAP1 POP SWAP2 SWAP1 POP JUMP JUMPDEST PUSH1 0x0 PUSH2 0x15F6 DUP3 PUSH2 0x15CB JUMP JUMPDEST SWAP1 POP SWAP2 SWAP1 POP JUMP JUMPDEST PUSH2 0x1606 DUP2 PUSH2 0x15EB JUMP JUMPDEST DUP3 MSTORE POP POP JUMP JUMPDEST PUSH2 0x1615 DUP2 PUSH2 0x1056 JUMP JUMPDEST DUP3 MSTORE POP POP JUMP JUMPDEST PUSH1 0x0 PUSH1 0x60 DUP3 ADD SWAP1 POP PUSH2 0x1630 PUSH1 0x0 DUP4 ADD DUP7 PUSH2 0x15FD JUMP JUMPDEST PUSH2 0x163D PUSH1 0x20 DUP4 ADD DUP6 PUSH2 0x11DF JUMP JUMPDEST PUSH2 0x164A PUSH1 0x40 DUP4 ADD DUP5 PUSH2 0x160C JUMP JUMPDEST SWAP5 SWAP4 POP POP POP POP JUMP JUMPDEST PUSH1 0x0 DUP2 SWAP1 POP DUP2 PUSH1 0x0 MSTORE PUSH1 0x20 PUSH1 0x0 KECCAK256 SWAP1 POP SWAP2 SWAP1 POP JUMP JUMPDEST PUSH1 0x0 PUSH1 0x20 PUSH1 0x1F DUP4 ADD DIV SWAP1 POP SWAP2 SWAP1 POP JUMP JUMPDEST PUSH1 0x0 DUP3 DUP3 SHL SWAP1 POP SWAP3 SWAP2 POP POP JUMP JUMPDEST PUSH1 0x0 PUSH1 0x8 DUP4 MUL PUSH2 0x16B4 PUSH32 0xFFFFFFFFFFFFFFFFFFFFFFFFFFFFFFFFFFFFFFFFFFFFFFFFFFFFFFFFFFFFFFFF DUP3 PUSH2 0x1677 JUMP JUMPDEST PUSH2 0x16BE DUP7 DUP4 PUSH2 0x1677 JUMP JUMPDEST SWAP6 POP DUP1 NOT DUP5 AND SWAP4 POP DUP1 DUP7 AND DUP5 OR SWAP3 POP POP POP SWAP4 SWAP3 POP POP POP JUMP JUMPDEST PUSH1 0x0 DUP2 SWAP1 POP SWAP2 SWAP1 POP JUMP JUMPDEST PUSH1 0x0 PUSH2 0x16FB PUSH2 0x16F6 PUSH2 0x16F1 DUP5 PUSH2 0xD4E JUMP JUMPDEST PUSH2 0x16D6 JUMP JUMPDEST PUSH2 0xD4E JUMP JUMPDEST SWAP1 POP SWAP2 SWAP1 POP JUMP JUMPDEST PUSH1 0x0 DUP2 SWAP1 POP SWAP2 SWAP1 POP JUMP JUMPDEST PUSH2 0x1715 DUP4 PUSH2 0x16E0 JUMP JUMPDEST PUSH2 0x1729 PUSH2 0x1721 DUP3 PUSH2 0x1702 JUMP JUMPDEST DUP5 DUP5 SLOAD PUSH2 0x1684 JUMP JUMPDEST DUP3 SSTORE POP POP POP POP JUMP JUMPDEST PUSH1 0x0 SWAP1 JUMP JUMPDEST PUSH2 0x173E PUSH2 0x1731 JUMP JUMPDEST PUSH2 0x1749 DUP2 DUP5 DUP5 PUSH2 0x170C JUMP JUMPDEST POP POP POP JUMP JUMPDEST JUMPDEST DUP2 DUP2 LT ISZERO PUSH2 0x176D JUMPI PUSH2 0x1762 PUSH1 0x0 DUP3 PUSH2 0x1736 JUMP JUMPDEST PUSH1 0x1 DUP2 ADD SWAP1 POP PUSH2 0x174F JUMP JUMPDEST POP POP JUMP JUMPDEST PUSH1 0x1F DUP3 GT ISZERO PUSH2 0x17B2 JUMPI PUSH2 0x1783 DUP2 PUSH2 0x1652 JUMP JUMPDEST PUSH2 0x178C DUP5 PUSH2 0x1667 JUMP JUMPDEST DUP2 ADD PUSH1 0x20 DUP6 LT ISZERO PUSH2 0x179B JUMPI DUP2 SWAP1 POP JUMPDEST PUSH2 0x17AF PUSH2 0x17A7 DUP6 PUSH2 0x1667 JUMP JUMPDEST DUP4 ADD DUP3 PUSH2 0x174E JUMP JUMPDEST POP POP JUMPDEST POP POP POP JUMP JUMPDEST PUSH1 0x0 DUP3 DUP3 SHR SWAP1 POP SWAP3 SWAP2 POP POP JUMP JUMPDEST PUSH1 0x0 PUSH2 0x17D5 PUSH1 0x0 NOT DUP5 PUSH1 0x8 MUL PUSH2 0x17B7 JUMP JUMPDEST NOT DUP1 DUP4 AND SWAP2 POP POP SWAP3 SWAP2 POP POP JUMP JUMPDEST PUSH1 0x0 PUSH2 0x17EE DUP4 DUP4 PUSH2 0x17C4 JUMP JUMPDEST SWAP2 POP DUP3 PUSH1 0x2 MUL DUP3 OR SWAP1 POP SWAP3 SWAP2 POP POP JUMP JUMPDEST PUSH2 0x1807 DUP3 PUSH2 0xEAE JUMP JUMPDEST PUSH8 0xFFFFFFFFFFFFFFFF DUP2 GT ISZERO PUSH2 0x1820 JUMPI PUSH2 0x181F PUSH2 0x1213 JUMP JUMPDEST JUMPDEST PUSH2 0x182A DUP3 SLOAD PUSH2 0x152E JUMP JUMPDEST PUSH2 0x1835 DUP3 DUP3 DUP6 PUSH2 0x1771 JUMP JUMPDEST PUSH1 0x0 PUSH1 0x20 SWAP1 POP PUSH1 0x1F DUP4 GT PUSH1 0x1 DUP2 EQ PUSH2 0x1868 JUMPI PUSH1 0x0 DUP5 ISZERO PUSH2 0x1856 JUMPI DUP3 DUP8 ADD MLOAD SWAP1 POP JUMPDEST PUSH2 0x1860 DUP6 DUP3 PUSH2 0x17E2 JUMP JUMPDEST DUP7 SSTORE POP PUSH2 0x18C8 JUMP JUMPDEST PUSH1 0x1F NOT DUP5 AND PUSH2 0x1876 DUP7 PUSH2 0x1652 JUMP JUMPDEST PUSH1 0x0 JUMPDEST DUP3 DUP2 LT ISZERO PUSH2 0x189E JUMPI DUP5 DUP10 ADD MLOAD DUP3 SSTORE PUSH1 0x1 DUP3 ADD SWAP2 POP PUSH1 0x20 DUP6 ADD SWAP5 POP PUSH1 0x20 DUP2 ADD SWAP1 POP PUSH2 0x1879 JUMP JUMPDEST DUP7 DUP4 LT ISZERO PUSH2 0x18BB JUMPI DUP5 DUP10 ADD MLOAD PUSH2 0x18B7 PUSH1 0x1F DUP10 AND DUP3 PUSH2 0x17C4 JUMP JUMPDEST DUP4 SSTORE POP JUMPDEST PUSH1 0x1 PUSH1 0x2 DUP9 MUL ADD DUP9 SSTORE POP POP POP JUMPDEST POP POP POP POP POP POP JUMP JUMPDEST PUSH1 0x0 PUSH1 0x40 DUP3 ADD SWAP1 POP PUSH2 0x18E5 PUSH1 0x0 DUP4 ADD DUP6 PUSH2 0x15FD JUMP JUMPDEST PUSH2 0x18F2 PUSH1 0x20 DUP4 ADD DUP5 PUSH2 0x11DF JUMP JUMPDEST SWAP4 SWAP3 POP POP POP JUMP INVALID LOG2 PUSH5 0x6970667358 0x22 SLT KECCAK256 PUSH27 0xC67286B00234CF7914E1001C14B0EFF0FA04AA36C0E388091A672F 0xC5 0x5D 0xED DUP5 PUSH5 0x736F6C6343 STOP ADDMOD SLT STOP CALLER "},"methodIdentifiers":{"add(string)":"b0c8f9dc","del(uint256)":"57771a23","get(uint256)":"9507d39a","getCount()":"a87d942c","list(uint256,uint256)":"50fd7367","save(uint256,string)":"cbf7446b"}}}}}