{
  "_format": "hh-sol-artifact-1",
  "contractName": "Blog",
  "sourceName": "contracts/Blog.sol",
  "abi": [
    {
      "anonymous": false,
      "inputs": [
        {
          "indexed": false,
          "internalType": "address",
          "name": "sender",
          "type": "address"
        },
        {
          "indexed": false,
          "internalType": "uint256",
          "name": "id",
          "type": "uint256"
        }
      ],
      "name": "Add",
      "type": "event"
    },
    {
      "anonymous": false,
      "inputs": [
        {
          "indexed": false,
          "internalType": "address",
          "name": "sender",
          "type": "address"
        },
        {
          "indexed": false,
          "internalType": "uint256",
          "name": "id",
          "type": "uint256"
        },
        {
          "indexed": false,
          "internalType": "enum Blog.Status",
          "name": "status",
          "type": "uint8"
        }
      ],
      "name": "Del",
      "type": "event"
    },
    {
      "anonymous": false,
      "inputs": [
        {
          "indexed": false,
          "internalType": "address",
          "name": "sender",
          "type": "address"
        },
        {
          "indexed": false,
          "internalType": "uint256",
          "name": "id",
          "type": "uint256"
        }
      ],
      "name": "Save",
      "type": "event"
    },
    {
      "inputs": [
        {
          "internalType": "string",
          "name": "_ipfsHash",
          "type": "string"
        }
      ],
      "name": "add",
      "outputs": [],
      "stateMutability": "nonpayable",
      "type": "function"
    },
    {
      "inputs": [
        {
          "internalType": "uint256",
          "name": "_id",
          "type": "uint256"
        }
      ],
      "name": "del",
      "outputs": [],
      "stateMutability": "nonpayable",
      "type": "function"
    },
    {
      "inputs": [
        {
          "internalType": "uint256",
          "name": "_id",
          "type": "uint256"
        }
      ],
      "name": "get",
      "outputs": [
        {
          "internalType": "string",
          "name": "ipfsHash",
          "type": "string"
        }
      ],
      "stateMutability": "view",
      "type": "function"
    },
    {
      "inputs": [],
      "name": "getCount",
      "outputs": [
        {
          "internalType": "uint256",
          "name": "",
          "type": "uint256"
        }
      ],
      "stateMutability": "view",
      "type": "function"
    },
    {
      "inputs": [
        {
          "internalType": "uint256",
          "name": "_page",
          "type": "uint256"
        },
        {
          "internalType": "uint256",
          "name": "_pageSize",
          "type": "uint256"
        }
      ],
      "name": "list",
      "outputs": [
        {
          "internalType": "uint256[]",
          "name": "ids",
          "type": "uint256[]"
        },
        {
          "internalType": "string[]",
          "name": "ipfsHashs",
          "type": "string[]"
        },
        {
          "internalType": "enum Blog.Status[]",
          "name": "status",
          "type": "uint8[]"
        }
      ],
      "stateMutability": "view",
      "type": "function"
    },
    {
      "inputs": [
        {
          "internalType": "uint256",
          "name": "_id",
          "type": "uint256"
        },
        {
          "internalType": "string",
          "name": "_ipfsHash",
          "type": "string"
        }
      ],
      "name": "save",
      "outputs": [],
      "stateMutability": "nonpayable",
      "type": "function"
    }
  ],
  "bytecode": "0x60806040526000805534801561001457600080fd5b5061192f806100246000396000f3fe608060405234801561001057600080fd5b50600436106100625760003560e01c806350fd73671461006757806357771a23146100995780639507d39a146100b5578063a87d942c146100e5578063b0c8f9dc14610103578063cbf7446b1461011f575b600080fd5b610081600480360381019061007c9190610d84565b61013b565b604051610090939291906110fa565b60405180910390f35b6100b360048036038101906100ae9190611146565b610619565b005b6100cf60048036038101906100ca9190611146565b6107e6565b6040516100dc91906111bd565b60405180910390f35b6100ed6109bc565b6040516100fa91906111ee565b60405180910390f35b61011d6004803603810190610118919061133e565b610a06565b005b61013960048036038101906101349190611387565b610bab565b005b60608060606000600260003373ffffffffffffffffffffffffffffffffffffffff1673ffffffffffffffffffffffffffffffffffffffff1681526020019081526020016000208054905090508067ffffffffffffffff8111156101a1576101a0611213565b5b6040519080825280602002602001820160405280156101cf5781602001602082028036833780820191505090505b5093508067ffffffffffffffff8111156101ec576101eb611213565b5b60405190808252806020026020018201604052801561021f57816020015b606081526020019060019003908161020a5790505b5092508067ffffffffffffffff81111561023c5761023b611213565b5b60405190808252806020026020018201604052801561026a5781602001602082028036833780820191505090505b50915060008060008760018a6102809190611412565b61028a9190611446565b905060006001898b61029c9190611446565b6102a69190611412565b90506000805b86811015610505576000600260003373ffffffffffffffffffffffffffffffffffffffff1673ffffffffffffffffffffffffffffffffffffffff168152602001908152602001600020828154811061030757610306611488565b5b9060005260206000200154905060018081111561032757610326611000565b5b6001600083815260200190815260200160002060020160009054906101000a900460ff16600181111561035d5761035c611000565b5b0361036857506104f2565b8280610373906114b7565b9350508483108061038357508383115b1561038e57506104f2565b808b87815181106103a2576103a1611488565b5b6020026020010181815250506001600082815260200190815260200160002060010180546103cf9061152e565b80601f01602080910402602001604051908101604052809291908181526020018280546103fb9061152e565b80156104485780601f1061041d57610100808354040283529160200191610448565b820191906000526020600020905b81548152906001019060200180831161042b57829003601f168201915b50505050508a87815181106104605761045f611488565b5b60200260200101819052506001600082815260200190815260200160002060020160009054906101000a900460ff168987815181106104a2576104a1611488565b5b602002602001019060018111156104bc576104bb611000565b5b908160018111156104d0576104cf611000565b5b8152505086806104df906114b7565b97505085806104ed906114b7565b965050505b80806104fd906114b7565b9150506102ac565b506000850361060257600167ffffffffffffffff81111561052957610528611213565b5b6040519080825280602002602001820160405280156105575781602001602082028036833780820191505090505b509850600167ffffffffffffffff81111561057557610574611213565b5b6040519080825280602002602001820160405280156105a857816020015b60608152602001906001900390816105935790505b509750600167ffffffffffffffff8111156105c6576105c5611213565b5b6040519080825280602002602001820160405280156105f45781602001602082028036833780820191505090505b509650505050505050610612565b8489528488528487525050505050505b9250925092565b3373ffffffffffffffffffffffffffffffffffffffff166001600083815260200190815260200160002060000160009054906101000a900473ffffffffffffffffffffffffffffffffffffffff1673ffffffffffffffffffffffffffffffffffffffff16146106bd576040517f08c379a00000000000000000000000000000000000000000000000000000000081526004016106b4906115ab565b60405180910390fd5b600060018111156106d1576106d0611000565b5b6001600083815260200190815260200160002060020160009054906101000a900460ff16600181111561070757610706611000565b5b14610747576040517f08c379a000000000000000000000000000000000000000000000000000000000815260040161073e906115ab565b60405180910390fd5b600180600083815260200190815260200160002060020160006101000a81548160ff021916908360018111156107805761077f611000565b5b02179055507f036d72f167243a95070b9c5500536c59137eae1c6f2bdb3fe53aad6084bfb3c433826001600085815260200190815260200160002060020160009054906101000a900460ff166040516107db9392919061161b565b60405180910390a150565b60603373ffffffffffffffffffffffffffffffffffffffff166001600084815260200190815260200160002060000160009054906101000a900473ffffffffffffffffffffffffffffffffffffffff1673ffffffffffffffffffffffffffffffffffffffff161461088c576040517f08c379a0000000000000000000000000000000000000000000000000000000008152600401610883906115ab565b60405180910390fd5b600060018111156108a05761089f611000565b5b6001600084815260200190815260200160002060020160009054906101000a900460ff1660018111156108d6576108d5611000565b5b14610916576040517f08c379a000000000000000000000000000000000000000000000000000000000815260040161090d906115ab565b60405180910390fd5b6001600083815260200190815260200160002060010180546109379061152e565b80601f01602080910402602001604051908101604052809291908181526020018280546109639061152e565b80156109b05780601f10610985576101008083540402835291602001916109b0565b820191906000526020600020905b81548152906001019060200180831161099357829003601f168201915b50505050509050919050565b6000600260003373ffffffffffffffffffffffffffffffffffffffff1673ffffffffffffffffffffffffffffffffffffffff16815260200190815260200160002080549050905090565b600080815480929190610a18906114b7565b919050555060405180606001604052803373ffffffffffffffffffffffffffffffffffffffff16815260200182815260200160006001811115610a5e57610a5d611000565b5b815250600160008054815260200190815260200160002060008201518160000160006101000a81548173ffffffffffffffffffffffffffffffffffffffff021916908373ffffffffffffffffffffffffffffffffffffffff1602179055506020820151816001019081610ad191906117fe565b5060408201518160020160006101000a81548160ff02191690836001811115610afd57610afc611000565b5b0217905550905050600260003373ffffffffffffffffffffffffffffffffffffffff1673ffffffffffffffffffffffffffffffffffffffff16815260200190815260200160002060005490806001815401808255809150506001900390600052602060002001600090919091909150557f2728c9d3205d667bbc0eefdfeda366261b4d021949630c047f3e5834b30611ab33600054604051610ba09291906118d0565b60405180910390a150565b3373ffffffffffffffffffffffffffffffffffffffff166001600084815260200190815260200160002060000160009054906101000a900473ffffffffffffffffffffffffffffffffffffffff1673ffffffffffffffffffffffffffffffffffffffff1614610c4f576040517f08c379a0000000000000000000000000000000000000000000000000000000008152600401610c46906115ab565b60405180910390fd5b60006001811115610c6357610c62611000565b5b6001600084815260200190815260200160002060020160009054906101000a900460ff166001811115610c9957610c98611000565b5b14610cd9576040517f08c379a0000000000000000000000000000000000000000000000000000000008152600401610cd0906115ab565b60405180910390fd5b80600160008481526020019081526020016000206001019081610cfc91906117fe565b507f5a3e025ad8b0ffc3940134b57218ebd90cfa0ed8a0ec0fdd53be572c480cf2cd3383604051610d2e9291906118d0565b60405180910390a15050565b6000604051905090565b600080fd5b600080fd5b6000819050919050565b610d6181610d4e565b8114610d6c57600080fd5b50565b600081359050610d7e81610d58565b92915050565b60008060408385031215610d9b57610d9a610d44565b5b6000610da985828601610d6f565b9250506020610dba85828601610d6f565b9150509250929050565b600081519050919050565b600082825260208201905092915050565b6000819050602082019050919050565b610df981610d4e565b82525050565b6000610e0b8383610df0565b60208301905092915050565b6000602082019050919050565b6000610e2f82610dc4565b610e398185610dcf565b9350610e4483610de0565b8060005b83811015610e75578151610e5c8882610dff565b9750610e6783610e17565b925050600181019050610e48565b5085935050505092915050565b600081519050919050565b600082825260208201905092915050565b6000819050602082019050919050565b600081519050919050565b600082825260208201905092915050565b60005b83811015610ee8578082015181840152602081019050610ecd565b60008484015250505050565b6000601f19601f8301169050919050565b6000610f1082610eae565b610f1a8185610eb9565b9350610f2a818560208601610eca565b610f3381610ef4565b840191505092915050565b6000610f4a8383610f05565b905092915050565b6000602082019050919050565b6000610f6a82610e82565b610f748185610e8d565b935083602082028501610f8685610e9e565b8060005b85811015610fc25784840389528151610fa38582610f3e565b9450610fae83610f52565b925060208a01995050600181019050610f8a565b50829750879550505050505092915050565b600081519050919050565b600082825260208201905092915050565b6000819050602082019050919050565b7f4e487b7100000000000000000000000000000000000000000000000000000000600052602160045260246000fd5b600281106110405761103f611000565b5b50565b60008190506110518261102f565b919050565b600061106182611043565b9050919050565b61107181611056565b82525050565b60006110838383611068565b60208301905092915050565b6000602082019050919050565b60006110a782610fd4565b6110b18185610fdf565b93506110bc83610ff0565b8060005b838110156110ed5781516110d48882611077565b97506110df8361108f565b9250506001810190506110c0565b5085935050505092915050565b600060608201905081810360008301526111148186610e24565b905081810360208301526111288185610f5f565b9050818103604083015261113c818461109c565b9050949350505050565b60006020828403121561115c5761115b610d44565b5b600061116a84828501610d6f565b91505092915050565b600082825260208201905092915050565b600061118f82610eae565b6111998185611173565b93506111a9818560208601610eca565b6111b281610ef4565b840191505092915050565b600060208201905081810360008301526111d78184611184565b905092915050565b6111e881610d4e565b82525050565b600060208201905061120360008301846111df565b92915050565b600080fd5b600080fd5b7f4e487b7100000000000000000000000000000000000000000000000000000000600052604160045260246000fd5b61124b82610ef4565b810181811067ffffffffffffffff8211171561126a57611269611213565b5b80604052505050565b600061127d610d3a565b90506112898282611242565b919050565b600067ffffffffffffffff8211156112a9576112a8611213565b5b6112b282610ef4565b9050602081019050919050565b82818337600083830152505050565b60006112e16112dc8461128e565b611273565b9050828152602081018484840111156112fd576112fc61120e565b5b6113088482856112bf565b509392505050565b600082601f83011261132557611324611209565b5b81356113358482602086016112ce565b91505092915050565b60006020828403121561135457611353610d44565b5b600082013567ffffffffffffffff81111561137257611371610d49565b5b61137e84828501611310565b91505092915050565b6000806040838503121561139e5761139d610d44565b5b60006113ac85828601610d6f565b925050602083013567ffffffffffffffff8111156113cd576113cc610d49565b5b6113d985828601611310565b9150509250929050565b7f4e487b7100000000000000000000000000000000000000000000000000000000600052601160045260246000fd5b600061141d82610d4e565b915061142883610d4e565b92508282039050818111156114405761143f6113e3565b5b92915050565b600061145182610d4e565b915061145c83610d4e565b925082820261146a81610d4e565b91508282048414831517611481576114806113e3565b5b5092915050565b7f4e487b7100000000000000000000000000000000000000000000000000000000600052603260045260246000fd5b60006114c282610d4e565b91507fffffffffffffffffffffffffffffffffffffffffffffffffffffffffffffffff82036114f4576114f36113e3565b5b600182019050919050565b7f4e487b7100000000000000000000000000000000000000000000000000000000600052602260045260246000fd5b6000600282049050600182168061154657607f821691505b602082108103611559576115586114ff565b5b50919050565b7f4461746120646f6573206e6f7420657869737400000000000000000000000000600082015250565b6000611595601383611173565b91506115a08261155f565b602082019050919050565b600060208201905081810360008301526115c481611588565b9050919050565b600073ffffffffffffffffffffffffffffffffffffffff82169050919050565b60006115f6826115cb565b9050919050565b611606816115eb565b82525050565b61161581611056565b82525050565b600060608201905061163060008301866115fd565b61163d60208301856111df565b61164a604083018461160c565b949350505050565b60008190508160005260206000209050919050565b60006020601f8301049050919050565b600082821b905092915050565b6000600883026116b47fffffffffffffffffffffffffffffffffffffffffffffffffffffffffffffffff82611677565b6116be8683611677565b95508019841693508086168417925050509392505050565b6000819050919050565b60006116fb6116f66116f184610d4e565b6116d6565b610d4e565b9050919050565b6000819050919050565b611715836116e0565b61172961172182611702565b848454611684565b825550505050565b600090565b61173e611731565b61174981848461170c565b505050565b5b8181101561176d57611762600082611736565b60018101905061174f565b5050565b601f8211156117b25761178381611652565b61178c84611667565b8101602085101561179b578190505b6117af6117a785611667565b83018261174e565b50505b505050565b600082821c905092915050565b60006117d5600019846008026117b7565b1980831691505092915050565b60006117ee83836117c4565b9150826002028217905092915050565b61180782610eae565b67ffffffffffffffff8111156118205761181f611213565b5b61182a825461152e565b611835828285611771565b600060209050601f8311600181146118685760008415611856578287015190505b61186085826117e2565b8655506118c8565b601f19841661187686611652565b60005b8281101561189e57848901518255600182019150602085019450602081019050611879565b868310156118bb57848901516118b7601f8916826117c4565b8355505b6001600288020188555050505b505050505050565b60006040820190506118e560008301856115fd565b6118f260208301846111df565b939250505056fea26469706673582212207ac67286b00234cf7914e1001c14b0eff0fa04aa36c0e388091a672fc55ded8464736f6c63430008120033",
  "linkReferences": {},
  "deployedLinkReferences": {}
}